:020000040800F2
:100000000080012035070008DD060008E30600082F
:10001000E9060008EF060008F506000800000000E9
:10002000000000000000000000000000FB060008C7
:10003000090700080000000017070008250700084E
:100040008507000885070008850700088507000860
:100050008507000885070008850700088507000850
:100060008507000885070008850700088507000840
:100070008507000885070008850700088507000830
:1000800085070008850700088507000800000000B4
:1000900000000000000000000000000085070008CC
:1000A0008507000885070008850700088507000800
:1000B00085070008850700088507000885070008F0
:1000C00085070008850700088507000885070008E0
:1000D0008507000885070008850700080000000064
:1000E0008507000885070008850700080000000054
:1000F000000000000000000000000000850700086C
:100100000000000085070008850700088507000833
:1001100000000000000000000000000000000000DF
:10012000850700088507000885070008850700087F
:10013000850700080000000000000000000000002B
:10014000000000000000000000000000850700081B
:10015000850700088507000885070008850700084F
:100160008507000885070008000000000000000067
:10017000000000000000000000000000000000007F
:1001800000000000850700080000000000000000DB
:0401900085070008D7
:1001940010B5054C237833B9044B13B10448AFF3BD
:1001A40000800123237010BD040000200000000023
:1001B400A00B000808B5034B1BB103490348AFF378
:1001C400008008BD0000000008000020A00B00080B
:1001D40080B485B000AF78607B6803F00703FB60F0
:1001E4000C4BDB68BB60BA684FF6FF031340BB607F
:1001F400FB681A02BB68134343F0BF6343F4003344
:10020400BB60044ABB68D36000BF1437BD465DF8C9
:10021400047B704700ED00E080B400AF044BDB6862
:100224001B0A03F007031846BD465DF8047B7047BC
:1002340000ED00E080B483B000AF03463960FB7189
:1002440097F90730002B0ADB3B68DAB20C4997F9BF
:1002540007301201D2B20B4483F800230AE03B6852
:10026400DAB20849FB7903F00F03043B1201D2B25E
:100274000B441A7600BF0C37BD465DF8047B70470B
:1002840000E100E000ED00E080B489B000AFF86068
:10029400B9607A60FB6803F00703FB61FB69C3F193
:1002A4000703042B28BF0423BB61FB690433062B1B
:1002B40002D9FB69033B00E000237B614FF0FF326E
:1002C400BB6902FA03F3DA43BB681A407B699A40BC
:1002D4004FF0FF317B6901FA03F3D9437B680B408C
:1002E400134318462437BD465DF8047B704700006D
:1002F40080B400AF054B1B68044A43F0010313604C
:1003040000BFBD465DF8047B704700BF0038024063
:1003140080B400AF064B1B6803F00203022B0CBF32
:1003240001230023DBB21846BD465DF8047B704709
:100334000038024080B483B000AF7860074B1B687C
:1003440023F0F8027B68DB00044913430B6000BF11
:100354000C37BD465DF8047B704700BF003802408F
:1003640080B483B000AF7860064B9B6823F003022F
:1003740004497B6813438B6000BF0C37BD465DF8AE
:10038400047B70470038024080B400AF044B9B6884
:1003940003F00C031846BD465DF8047B704700BFAC
:1003A4000038024080B483B000AF7860064B9B688D
:1003B40023F0F00204497B6813438B6000BF0C37C1
:1003C400BD465DF8047B70470038024080B483B0BA
:1003D40000AF7860064B9B6823F4E05204497B68C5
:1003E40013438B6000BF0C37BD465DF8047B704738
:1003F4000038024080B483B000AF7860064B9B683D
:1004040023F4604204497B6813438B6000BF0C37BC
:10041400BD465DF8047B70470038024080B483B069
:1004240000AF7860074BD3F88C3023F08072054915
:100434007B681343C1F88C3000BF0C37BD465DF8B0
:10044400047B70470038024080B485B000AF786008
:10045400084B1A6B07497B6813430B63054B1A6BF4
:100464007B681340FB60FB6800BF1437BD465DF832
:10047400047B70470038024080B485B000AF7860D8
:10048400084B1A6C07497B6813430B64054B1A6CC1
:100494007B681340FB60FB6800BF1437BD465DF802
:1004A400047B70470038024080B485B000AF7860A8
:1004B400084B5A6C07497B6813434B64054B5A6CD1
:1004C4007B681340FB60FB6800BF1437BD465DF8D2
:1004D400047B70470038024080B483B000AF78607A
:1004E400064B1B6823F0070204497B6813430B6027
:1004F40000BF0C37BD465DF8047B7047003C0240EA
:1005040080B400AF044B1B6803F007031846BD46D4
:100514005DF8047B704700BF003C024080B483B0A8
:1005240000AF7860064B1B6823F4404204497B68A3
:1005340013430B6000BF0C37BD465DF8047B704766
:100544000070004080B483B000AF786039603B68CD
:100554001A047B689A6100BF0C37BD465DF8047BC2
:10056400704780B485B000AF786039607B685B69A0
:10057400FB60FA683B6813401A04FB68D9433B6884
:100584000B401A437B689A6100BF1437BD465DF87F
:10059400047B704780B584B000AF4FF48040FFF710
:1005A40083FF4FF08050FFF767FF0320FFF710FE33
:1005B400FFF732FE034600220F211846FFF764FEC0
:1005C400034619464FF0FF30FFF734FE00F022F8DF
:1005D40000F05AF80D4B1B680C4A43F001031360FA
:1005E4000A4B00225A60094B5B68FB6020210848D3
:1005F400FFF7B7FF054B5B68BB60BA68FB68D31AAB
:100604007B604FF47A7000F06FFAECE7001000E0C2
:100614000000024080B500AF0020FFF75DFF00BF7F
:10062400FFF76EFF0346002BFAD14FF40040FFF7AB
:1006340075FF1020FFF77EFEFFF75AFE00BFFFF79D
:1006440067FE0346012BFAD10020FFF7ABFE002022
:10065400FFF7BCFE0020FFF7CDFE0020FFF780FE71
:1006640000BFFFF791FE0346002BFAD1054800F0C6
:100674002DFA044800F05EFA0020FFF7CFFE00BF19
:1006840080BD00BF0024F40080B586B000AF3B46B7
:1006940000221A605A609A60DA601A615A61012075
:1006A400FFF7D2FE20210B48FFF74CFF20233B60CD
:1006B40001237B600023BB600023FB6000233B61BC
:1006C4003B461946034800F074F900BF1837BD468D
:1006D40080BD00BF0000024080B400AFFEE780B4DC
:1006E40000AFFEE780B400AFFEE780B400AFFEE7E2
:1006F40080B400AFFEE780B400AF00BFBD465DF834
:10070400047B704780B400AF00BFBD465DF8047B36
:10071400704780B400AF00BFBD465DF8047B7047EE
:1007240080B400AF00BFBD465DF8047B7047000095
:10073400DFF834D00D480E490E4A002302E0D458A5
:10074400C4500433C4188C42F9D30B4A0B4C002315
:1007540001E013600432A242FBD300F013F800F06E
:10076400F9F9FFF717FF704700800120000000200F
:1007740004000020C00B000804000020200000201A
:10078400FEE7000080B400AF064BD3F88830054A7A
:1007940043F47003C2F8883000BFBD465DF8047BA3
:1007A400704700BF00ED00E080B489B000AFF8608E
:1007B400B9607A60FB681A68BB687B617B6993FAED
:1007C400A3F33B613B69B3FA83F3DBB25B00032120
:1007D40001FA03F3DB431A40BB68FB61FB6993FA3C
:1007E400A3F3BB61BB69B3FA83F3DBB25B00796843
:1007F40001FA03F31A43FB681A6000BF2437BD46AD
:100804005DF8047B704780B485B000AFF860B960D0
:100814007A60FB685A68BB68DB431A40BB68796836
:1008240001FB03F31A43FB685A6000BF1437BD464B
:100834005DF8047B704780B489B000AFF860B9609C
:100844007A60FB689A68BB687B617B6993FAA3F35F
:100854003B613B69B3FA83F3DBB25B00032101FA2A
:1008640003F3DB431A40BB68FB61FB6993FAA3F310
:10087400BB61BB69B3FA83F3DBB25B00796801FA4D
:1008840003F31A43FB689A6000BF2437BD465DF842
:10089400047B704780B489B000AFF860B9607A60B7
:1008A400FB68DA68BB687B617B6993FAA3F33B61FD
:1008B4003B69B3FA83F3DBB25B00032101FA03F370
:1008C400DB431A40BB68FB61FB6993FAA3F3BB618A
:1008D400BB69B3FA83F3DBB25B00796801FA03F313
:1008E4001A43FB68DA6000BF2437BD465DF8047B19
:1008F400704780B489B000AFF860B9607A60FB6873
:100904001A6ABB687B617B6993FAA3F33B613B6919
:10091400B3FA83F3DBB29B000F2101FA03F3DB4349
:100924001A40BB68FB61FB6993FAA3F3BB61BB6923
:10093400B3FA83F3DBB29B00796801FA03F31A4339
:10094400FB681A6200BF2437BD465DF8047B70471C
:1009540080B489B000AFF860B9607A60FB685A6A05
:10096400BB681B0A7B617B6993FAA3F33B613B6918
:10097400B3FA83F3DBB29B000F2101FA03F3DB43E9
:100984001A40BB681B0AFB61FB6993FAA3F3BB61C2
:10099400BB69B3FA83F3DBB29B00796801FA03F312
:1009A4001A43FB685A6200BF2437BD465DF8047BD6
:1009B400704780B588B000AF786039600023FB6170
:1009C4000023BB613B681B687B617B6993FAA3F3DB
:1009D4003B613B69B3FA83F3DBB2FB6150E03B68F4
:1009E4001A680121FB6901FA03F31340BB61BB6977
:1009F400002B42D03B685B68012B03D03B685B68EB
:100A0400022B0DD13B689B681A46B9697868FFF7D9
:100A140012FF3B68DB681A46B9697868FFF7F3FE92
:100A24003B681B691A46B9697868FFF733FF3B686E
:100A34005B68022B1AD1BB69FB60FB6893FAA3F3D2
:100A4400BB60BB68B3FA83F3DBB2072B07D83B6800
:100A54005B691A46B9697868FFF74BFF06E03B68A3
:100A64005B691A46B9697868FFF772FF3B685B688F
:100A74001A46B9697868FFF797FEFB690133FB6191
:100A84003B681A68FB6922FA03F3002BA7D1002301
:100A940018462037BD4680BD80B483B000AF78606F
:100AA40039607A683B68B2FBF3F3074A013B536051
:100AB400054B00229A60044B05221A6000BF0C37D4
:100AC400BD465DF8047B704710E000E080B582B05D
:100AD40000AF78604FF47A717868FFF7DDFF00BFEC
:100AE4000837BD4680BD000080B485B000AF786093
:100AF4000F4B1B68FB60FB687B68B3F1FF3F0CD0B6
:100B04007B6801337B6008E0094B1B6803F4803386
:100B1400002B02D07B68013B7B607B68002BF3D108
:100B240000BF00BF1437BD465DF8047B704700BFAB
:100B340010E000E080B483B000AF7860044A7B68C2
:100B4400136000BF0C37BD465DF8047B704700BFDF
:100B54000000002070B50D4D0D4C641BA410002640
:100B6400A64209D10B4D0C4C00F018F8641BA410DC
:100B74000026A64205D170BD55F8043B98470136BE
:100B8400EEE755F8043B98470136F2E7B80B000846
:100B9400B80B0008B80B0008BC0B0008F8B500BF80
:100BA400F8BC08BC9E467047F8B500BFF8BC08BC4A
:040BB4009E467047A2
:040BB800B901000877
:040BBC009501000897
:040BC0000024F40019
:0400000508000735B3
:00000001FF
