:020000040800F2
:100000000080012085030008D5030008D5030008FF
:10001000D5030008D5030008D50300080000000040
:10002000000000000000000000000000D5030008F0
:10003000D503000800000000D50300089102000865
:1000400000000000D5030008D5030008D503000810
:10005000D5030008D5030008D5030008D503000820
:10006000D5030008D5030008D5030008D503000810
:10007000D5030008D5030008D5030008D503000800
:10008000D5030008D5030008D503000800000000D0
:10009000000000000000000000000000D503000880
:1000A000D5030008D5030008D5030008D5030008D0
:1000B000D5030008D5030008D5030008D5030008C0
:1000C000D5030008D5030008D5030008D5030008B0
:1000D000D5030008D5030008D50300080000000080
:1000E000D5030008D5030008D50300080000000070
:1000F000000000000000000000000000D503000820
:1001000000000000D5030008D5030008D50300084F
:1001100000000000000000000000000000000000DF
:10012000D5030008D5030008D5030008D50300084F
:10013000D5030008000000000000000000000000DF
:10014000000000000000000000000000D5030008CF
:10015000D5030008D5030008D5030008D50300081F
:10016000D5030008D50300080000000000000000CF
:10017000000000000000000000000000000000007F
:10018000000000000000000000000000000000006F
:04019000D50300088B
:1001940010B5054C237833B9044B13B10448AFF3BD
:1001A40000800123237010BD000000200000000027
:1001B4002004000808B5034B1BB103490348AFF3FF
:1001C400008008BD00000000040000202004000896
:1001D40080B400AF064BD3F88830054A43F470036B
:1001E400C2F8883000BFBD465DF8047B704700BF8D
:1001F40000ED00E080B483B000AF03463960FB71CA
:1002040097F90730002B0ADB3B68DAB20C4997F9FF
:1002140007301201D2B20B4483F800230AE03B6892
:10022400DAB20849FB7903F00F03043B1201D2B29E
:100234000B441A7600BF0C37BD465DF8047B70474B
:1002440000E100E000ED00E080B582B000AF78602E
:100254007B68013BB3F1807F01D301230FE00A4A9D
:100264007B68013B53600F214FF0FF30FFF7C2FF63
:10027400054B00229A60044B07221A60002318469B
:100284000837BD4680BD00BF10E000E080B400AF79
:10029400064B1B68002B04D0044B1B68013B034A2C
:1002A400136000BFBD465DF8047B70471C0000204E
:1002B40080B483B000AF7860094B43F67F625A6024
:1002C4007B68084A136000BF064B1B68002BFBD1F8
:1002D40000BF00BF0C37BD465DF8047B704700BF0C
:1002E40010E000E01C00002080B584B000AF1F4B7C
:1002F400FB601F4B1B6B1E4A43F0010313631D4B32
:100304001B681C4A23F4406313601A4B1B68194A88
:1003140043F480631360FB68174AA2FB03239B0921
:100324001846FFF791FF154B1B68144A43F001036D
:100334001360124B00225A60104B5B68BB600D4B7C
:1003440020229A610D4B5B687B607A68BB68D31A84
:100354003B604FF47A70FFF7ABFF064B4FF400128B
:100364009A614FF47A70FFF7A3FFE5E70024F400E5
:100374000038024000000240D34D6210001000E03B
:100384000D488546FFF724FF0C480D490D4A00230C
:1003940002E0D458C4500433C4188C42F9D30A4A36
:1003A4000A4C002301E013600432A242FBD300F0A4
:1003B40011F8FFF799FFFEE70080012000000020FC
:1003C400000000204004000800000020200000205D
:1003D400FEE7000070B50D4D0D4C641BA410002603
:1003E400A64209D10B4D0C4C00F018F8641BA41064
:1003F4000026A64205D170BD55F8043B9847013646
:10040400EEE755F8043B98470136F2E73804000854
:1004140038040008380400083C040008F8B500BF9C
:10042400F8BC08BC9E467047F8B500BFF8BC08BCD1
:040434009E46704729
:04043800B9010008FE
:04043C00950100081E
:040000050800038567
:00000001FF
